:1000000086C1B7F7C0860EB7F7C186F0B7F7C186CD
:10001000C1B7F7C4860CB7F7C586F0B7F7C5F6F7D2
:10002000C0C44027F9B7F7C3A68026F239B6F7C097
:07003000840127F996033952
:10FF000010CE0200BDFF169D009D2D810D26FA8E9C
:10FF1000F0009D2820FEBDFF201A5086C01F8B399F
:10FF2000CD000000001F8B1F011F021F031F071CB5
:02FF3000003996
:10F000006D6963726F4C696E6420696E69746961C1
:10F010006C697A65642E2E2E005374617274696E69
:0EF0200067206D656D636865636B2E2E2E0094
:10FFF000FF00FF00FF00FF00FF00FF00FF00FF0009
:00000001FF